{
  "_format": "hh-sol-artifact-1",
  "contractName": "ERC1155NFT",
  "sourceName": "contracts/test/ERC1155NFT.sol",
  "abi": [
    {
      "inputs": [],
      "stateMutability": "nonpayable",
      "type": "constructor"
    },
    {
      "anonymous": false,
      "inputs": [
        {
          "indexed": true,
          "internalType": "address",
          "name": "account",
          "type": "address"
        },
        {
          "indexed": true,
          "internalType": "address",
          "name": "operator",
          "type": "address"
        },
        {
          "indexed": false,
          "internalType": "bool",
          "name": "approved",
          "type": "bool"
        }
      ],
      "name": "ApprovalForAll",
      "type": "event"
    },
    {
      "anonymous": false,
      "inputs": [
        {
          "indexed": true,
          "internalType": "address",
          "name": "operator",
          "type": "address"
        },
        {
          "indexed": true,
          "internalType": "address",
          "name": "from",
          "type": "address"
        },
        {
          "indexed": true,
          "internalType": "address",
          "name": "to",
          "type": "address"
        },
        {
          "indexed": false,
          "internalType": "uint256[]",
          "name": "ids",
          "type": "uint256[]"
        },
        {
          "indexed": false,
          "internalType": "uint256[]",
          "name": "values",
          "type": "uint256[]"
        }
      ],
      "name": "TransferBatch",
      "type": "event"
    },
    {
      "anonymous": false,
      "inputs": [
        {
          "indexed": true,
          "internalType": "address",
          "name": "operator",
          "type": "address"
        },
        {
          "indexed": true,
          "internalType": "address",
          "name": "from",
          "type": "address"
        },
        {
          "indexed": true,
          "internalType": "address",
          "name": "to",
          "type": "address"
        },
        {
          "indexed": false,
          "internalType": "uint256",
          "name": "id",
          "type": "uint256"
        },
        {
          "indexed": false,
          "internalType": "uint256",
          "name": "value",
          "type": "uint256"
        }
      ],
      "name": "TransferSingle",
      "type": "event"
    },
    {
      "anonymous": false,
      "inputs": [
        {
          "indexed": false,
          "internalType": "string",
          "name": "value",
          "type": "string"
        },
        {
          "indexed": true,
          "internalType": "uint256",
          "name": "id",
          "type": "uint256"
        }
      ],
      "name": "URI",
      "type": "event"
    },
    {
      "inputs": [
        {
          "internalType": "address",
          "name": "account",
          "type": "address"
        },
        {
          "internalType": "uint256",
          "name": "amount",
          "type": "uint256"
        }
      ],
      "name": "awardItem",
      "outputs": [
        {
          "internalType": "uint256",
          "name": "",
          "type": "uint256"
        }
      ],
      "stateMutability": "nonpayable",
      "type": "function"
    },
    {
      "inputs": [
        {
          "internalType": "address",
          "name": "account",
          "type": "address"
        },
        {
          "internalType": "uint256",
          "name": "id",
          "type": "uint256"
        }
      ],
      "name": "balanceOf",
      "outputs": [
        {
          "internalType": "uint256",
          "name": "",
          "type": "uint256"
        }
      ],
      "stateMutability": "view",
      "type": "function"
    },
    {
      "inputs": [
        {
          "internalType": "address[]",
          "name": "accounts",
          "type": "address[]"
        },
        {
          "internalType": "uint256[]",
          "name": "ids",
          "type": "uint256[]"
        }
      ],
      "name": "balanceOfBatch",
      "outputs": [
        {
          "internalType": "uint256[]",
          "name": "",
          "type": "uint256[]"
        }
      ],
      "stateMutability": "view",
      "type": "function"
    },
    {
      "inputs": [
        {
          "internalType": "address",
          "name": "account",
          "type": "address"
        },
        {
          "internalType": "address",
          "name": "operator",
          "type": "address"
        }
      ],
      "name": "isApprovedForAll",
      "outputs": [
        {
          "internalType": "bool",
          "name": "",
          "type": "bool"
        }
      ],
      "stateMutability": "view",
      "type": "function"
    },
    {
      "inputs": [
        {
          "internalType": "address",
          "name": "from",
          "type": "address"
        },
        {
          "internalType": "address",
          "name": "to",
          "type": "address"
        },
        {
          "internalType": "uint256[]",
          "name": "ids",
          "type": "uint256[]"
        },
        {
          "internalType": "uint256[]",
          "name": "amounts",
          "type": "uint256[]"
        },
        {
          "internalType": "bytes",
          "name": "data",
          "type": "bytes"
        }
      ],
      "name": "safeBatchTransferFrom",
      "outputs": [],
      "stateMutability": "nonpayable",
      "type": "function"
    },
    {
      "inputs": [
        {
          "internalType": "address",
          "name": "from",
          "type": "address"
        },
        {
          "internalType": "address",
          "name": "to",
          "type": "address"
        },
        {
          "internalType": "uint256",
          "name": "id",
          "type": "uint256"
        },
        {
          "internalType": "uint256",
          "name": "amount",
          "type": "uint256"
        },
        {
          "internalType": "bytes",
          "name": "data",
          "type": "bytes"
        }
      ],
      "name": "safeTransferFrom",
      "outputs": [],
      "stateMutability": "nonpayable",
      "type": "function"
    },
    {
      "inputs": [
        {
          "internalType": "address",
          "name": "operator",
          "type": "address"
        },
        {
          "internalType": "bool",
          "name": "approved",
          "type": "bool"
        }
      ],
      "name": "setApprovalForAll",
      "outputs": [],
      "stateMutability": "nonpayable",
      "type": "function"
    },
    {
      "inputs": [
        {
          "internalType": "bytes4",
          "name": "interfaceId",
          "type": "bytes4"
        }
      ],
      "name": "supportsInterface",
      "outputs": [
        {
          "internalType": "bool",
          "name": "",
          "type": "bool"
        }
      ],
      "stateMutability": "view",
      "type": "function"
    },
    {
      "inputs": [
        {
          "internalType": "uint256",
          "name": "",
          "type": "uint256"
        }
      ],
      "name": "uri",
      "outputs": [
        {
          "internalType": "string",
          "name": "",
          "type": "string"
        }
      ],
      "stateMutability": "view",
      "type": "function"
    }
  ],
  "bytecode": "0x60806040523480156200001157600080fd5b506040518060400160405280600881526020017f546573744974656d00000000000000000000000000000000000000000000000081525062000059816200006060201b60201c565b5062000191565b8060029080519060200190620000789291906200007c565b5050565b8280546200008a906200012c565b90600052602060002090601f016020900481019282620000ae5760008555620000fa565b82601f10620000c957805160ff1916838001178555620000fa565b82800160010185558215620000fa579182015b82811115620000f9578251825591602001919060010190620000dc565b5b5090506200010991906200010d565b5090565b5b80821115620001285760008160009055506001016200010e565b5090565b600060028204905060018216806200014557607f821691505b602082108114156200015c576200015b62000162565b5b50919050565b7f4e487b7100000000000000000000000000000000000000000000000000000000600052602260045260246000fd5b61283e80620001a16000396000f3fe608060405234801561001057600080fd5b50600436106100925760003560e01c80632eb2c2d6116100665780632eb2c2d6146101575780634e1273f414610173578063a22cb465146101a3578063e985e9c5146101bf578063f242432a146101ef57610092565b8062fdd58e1461009757806301ffc9a7146100c75780630e89341c146100f7578063144c9d4c14610127575b600080fd5b6100b160048036038101906100ac91906119c1565b61020b565b6040516100be9190612322565b60405180910390f35b6100e160048036038101906100dc9190611a69565b6102d4565b6040516100ee9190612185565b60405180910390f35b610111600480360381019061010c9190611abb565b6103b6565b60405161011e91906121a0565b60405180910390f35b610141600480360381019061013c91906119c1565b61044a565b60405161014e9190612322565b60405180910390f35b610171600480360381019061016c9190611837565b61047d565b005b61018d600480360381019061018891906119fd565b610873565b60405161019a919061212c565b60405180910390f35b6101bd60048036038101906101b89190611985565b610a24565b005b6101d960048036038101906101d491906117fb565b610ba5565b6040516101e69190612185565b60405180910390f35b610209600480360381019061020491906118f6565b610c39565b005b60008073ffffffffffffffffffffffffffffffffffffffff168373ffffffffffffffffffffffffffffffffffffffff16141561027c576040517f08c379a000000000000000000000000000000000000000000000000000000000815260040161027390612202565b60405180910390fd5b60008083815260200190815260200160002060008473ffffffffffffffffffffffffffffffffffffffff1673ffffffffffffffffffffffffffffffffffffffff16815260200190815260200160002054905092915050565b60007fd9b67a26000000000000000000000000000000000000000000000000000000007bffffffffffffffffffffffffffffffffffffffffffffffffffffffff1916827bffffffffffffffffffffffffffffffffffffffffffffffffffffffff1916148061039f57507f0e89341c000000000000000000000000000000000000000000000000000000007bffffffffffffffffffffffffffffffffffffffffffffffffffffffff1916827bffffffffffffffffffffffffffffffffffffffffffffffffffffffff1916145b806103af57506103ae82610f51565b5b9050919050565b6060600280546103c5906125d0565b80601f01602080910402602001604051908101604052809291908181526020018280546103f1906125d0565b801561043e5780601f106104135761010080835404028352916020019161043e565b820191906000526020600020905b81548152906001019060200180831161042157829003601f168201915b50505050509050919050565b60006104566003610fbb565b606060006104646003610fd1565b905061047285828685610fdf565b809250505092915050565b81518351146104c1576040517f08c379a00000000000000000000000000000000000000000000000000000000081526004016104b8906122e2565b60405180910390fd5b600073ffffffffffffffffffffffffffffffffffffffff168473ffffffffffffffffffffffffffffffffffffffff161415610531576040517f08c379a000000000000000000000000000000000000000000000000000000000815260040161052890612242565b60405180910390fd5b610539611175565b73ffffffffffffffffffffffffffffffffffffffff168573ffffffffffffffffffffffffffffffffffffffff16148061057f575061057e85610579611175565b610ba5565b5b6105be576040517f08c379a00000000000000000000000000000000000000000000000000000000081526004016105b590612262565b60405180910390fd5b60006105c8611175565b90506105d881878787878761117d565b60005b84518110156107de57600085828151811061061f577f4e487b7100000000000000000000000000000000000000000000000000000000600052603260045260246000fd5b602002602001015190506000858381518110610664577f4e487b7100000000000000000000000000000000000000000000000000000000600052603260045260246000fd5b60200260200101519050600080600084815260200190815260200160002060008b73ffffffffffffffffffffffffffffffffffffffff1673ffffffffffffffffffffffffffffffffffffffff16815260200190815260200160002054905081811015610705576040517f08c379a00000000000000000000000000000000000000000000000000000000081526004016106fc90612282565b60405180910390fd5b818161071191906124e6565b60008085815260200190815260200160002060008c73ffffffffffffffffffffffffffffffffffffffff1673ffffffffffffffffffffffffffffffffffffffff168152602001908152602001600020819055508160008085815260200190815260200160002060008b73ffffffffffffffffffffffffffffffffffffffff1673ffffffffffffffffffffffffffffffffffffffff16815260200190815260200160002060008282546107c39190612490565b92505081905550505050806107d790612602565b90506105db565b508473ffffffffffffffffffffffffffffffffffffffff168673ffffffffffffffffffffffffffffffffffffffff168273ffffffffffffffffffffffffffffffffffffffff167f4a39dc06d4c0dbc64b70af90fd698a233a518aa5d07e595d983b8c0526c8f7fb878760405161085592919061214e565b60405180910390a461086b818787878787611185565b505050505050565b606081518351146108b9576040517f08c379a00000000000000000000000000000000000000000000000000000000081526004016108b0906122c2565b60405180910390fd5b6000835167ffffffffffffffff8111156108fc577f4e487b7100000000000000000000000000000000000000000000000000000000600052604160045260246000fd5b60405190808252806020026020018201604052801561092a5781602001602082028036833780820191505090505b50905060005b8451811015610a19576109c3858281518110610975577f4e487b7100000000000000000000000000000000000000000000000000000000600052603260045260246000fd5b60200260200101518583815181106109b6577f4e487b7100000000000000000000000000000000000000000000000000000000600052603260045260246000fd5b602002602001015161020b565b8282815181106109fc577f4e487b7100000000000000000000000000000000000000000000000000000000600052603260045260246000fd5b60200260200101818152505080610a1290612602565b9050610930565b508091505092915050565b8173ffffffffffffffffffffffffffffffffffffffff16610a43611175565b73ffffffffffffffffffffffffffffffffffffffff161415610a9a576040517f08c379a0000000000000000000000000000000000000000000000000000000008152600401610a91906122a2565b60405180910390fd5b8060016000610aa7611175565b73ffffffffffffffffffffffffffffffffffffffff1673ffffffffffffffffffffffffffffffffffffffff16815260200190815260200160002060008473ffffffffffffffffffffffffffffffffffffffff1673ffffffffffffffffffffffffffffffffffffffff16815260200190815260200160002060006101000a81548160ff0219169083151502179055508173ffffffffffffffffffffffffffffffffffffffff16610b54611175565b73ffffffffffffffffffffffffffffffffffffffff167f17307eab39ab6107e8899845ad3d59bd9653f200f220920489ca2b5937696c3183604051610b999190612185565b60405180910390a35050565b6000600160008473ffffffffffffffffffffffffffffffffffffffff1673ffffffffffffffffffffffffffffffffffffffff16815260200190815260200160002060008373ffffffffffffffffffffffffffffffffffffffff1673ffffffffffffffffffffffffffffffffffffffff16815260200190815260200160002060009054906101000a900460ff16905092915050565b600073ffffffffffffffffffffffffffffffffffffffff168473ffffffffffffffffffffffffffffffffffffffff161415610ca9576040517f08c379a0000000000000000000000000000000000000000000000000000000008152600401610ca090612242565b60405180910390fd5b610cb1611175565b73ffffffffffffffffffffffffffffffffffffffff168573ffffffffffffffffffffffffffffffffffffffff161480610cf75750610cf685610cf1611175565b610ba5565b5b610d36576040517f08c379a0000000000000000000000000000000000000000000000000000000008152600401610d2d90612222565b60405180910390fd5b6000610d40611175565b9050610d60818787610d5188611355565b610d5a88611355565b8761117d565b600080600086815260200190815260200160002060008873ffffffffffffffffffffffffffffffffffffffff1673ffffffffffffffffffffffffffffffffffffffff16815260200190815260200160002054905083811015610df7576040517f08c379a0000000000000000000000000000000000000000000000000000000008152600401610dee90612282565b60405180910390fd5b8381610e0391906124e6565b60008087815260200190815260200160002060008973ffffffffffffffffffffffffffffffffffffffff1673ffffffffffffffffffffffffffffffffffffffff168152602001908152602001600020819055508360008087815260200190815260200160002060008873ffffffffffffffffffffffffffffffffffffffff1673ffffffffffffffffffffffffffffffffffffffff1681526020019081526020016000206000828254610eb59190612490565b925050819055508573ffffffffffffffffffffffffffffffffffffffff168773ffffffffffffffffffffffffffffffffffffffff168373ffffffffffffffffffffffffffffffffffffffff167fc3d58168c5ae7397731d063d5bbf3d657854427343f4c083240f7aacaa2d0f628888604051610f3292919061233d565b60405180910390a4610f4882888888888861141b565b50505050505050565b60007f01ffc9a7000000000000000000000000000000000000000000000000000000007bffffffffffffffffffffffffffffffffffffffffffffffffffffffff1916827bffffffffffffffffffffffffffffffffffffffffffffffffffffffff1916149050919050565b6001816000016000828254019250508190555050565b600081600001549050919050565b600073ffffffffffffffffffffffffffffffffffffffff168473ffffffffffffffffffffffffffffffffffffffff16141561104f576040517f08c379a000000000000000000000000000000000000000000000000000000000815260040161104690612302565b60405180910390fd5b6000611059611175565b905061107a8160008761106b88611355565b61107488611355565b8761117d565b8260008086815260200190815260200160002060008773ffffffffffffffffffffffffffffffffffffffff1673ffffffffffffffffffffffffffffffffffffffff16815260200190815260200160002060008282546110d99190612490565b925050819055508473ffffffffffffffffffffffffffffffffffffffff16600073ffffffffffffffffffffffffffffffffffffffff168273ffffffffffffffffffffffffffffffffffffffff167fc3d58168c5ae7397731d063d5bbf3d657854427343f4c083240f7aacaa2d0f62878760405161115792919061233d565b60405180910390a461116e8160008787878761141b565b5050505050565b600033905090565b505050505050565b6111a48473ffffffffffffffffffffffffffffffffffffffff166115eb565b1561134d578373ffffffffffffffffffffffffffffffffffffffff1663bc197c8187878686866040518663ffffffff1660e01b81526004016111ea95949392919061206a565b602060405180830381600087803b15801561120457600080fd5b505af192505050801561123557506040513d601f19601f820116820180604052508101906112329190611a92565b60015b6112c4576112416126f6565b8061124c5750611289565b806040517f08c379a000000000000000000000000000000000000000000000000000000000815260040161128091906121a0565b60405180910390fd5b6040517f08c379a00000000000000000000000000000000000000000000000000000000081526004016112bb906121c2565b60405180910390fd5b63bc197c8160e01b7bffffffffffffffffffffffffffffffffffffffffffffffffffffffff1916817bffffffffffffffffffffffffffffffffffffffffffffffffffffffff19161461134b576040517f08c379a0000000000000000000000000000000000000000000000000000000008152600401611342906121e2565b60405180910390fd5b505b505050505050565b60606000600167ffffffffffffffff81111561139a577f4e487b7100000000000000000000000000000000000000000000000000000000600052604160045260246000fd5b6040519080825280602002602001820160405280156113c85781602001602082028036833780820191505090505b5090508281600081518110611406577f4e487b7100000000000000000000000000000000000000000000000000000000600052603260045260246000fd5b60200260200101818152505080915050919050565b61143a8473ffffffffffffffffffffffffffffffffffffffff166115eb565b156115e3578373ffffffffffffffffffffffffffffffffffffffff1663f23a6e6187878686866040518663ffffffff1660e01b81526004016114809594939291906120d2565b602060405180830381600087803b15801561149a57600080fd5b505af19250505080156114cb57506040513d601f19601f820116820180604052508101906114c89190611a92565b60015b61155a576114d76126f6565b806114e2575061151f565b806040517f08c379a000000000000000000000000000000000000000000000000000000000815260040161151691906121a0565b60405180910390fd5b6040517f08c379a0000000000000000000000000000000000000000000000000000000008152600401611551906121c2565b60405180910390fd5b63f23a6e6160e01b7bffffffffffffffffffffffffffffffffffffffffffffffffffffffff1916817bffffffffffffffffffffffffffffffffffffffffffffffffffffffff1916146115e1576040517f08c379a00000000000000000000000000000000000000000000000000000000081526004016115d8906121e2565b60405180910390fd5b505b505050505050565b600080823b905060008111915050919050565b600061161161160c84612397565b612366565b9050808382526020820190508285602086028201111561163057600080fd5b60005b8581101561166057816116468882611714565b845260208401935060208301925050600181019050611633565b5050509392505050565b600061167d611678846123c3565b612366565b9050808382526020820190508285602086028201111561169c57600080fd5b60005b858110156116cc57816116b288826117e6565b84526020840193506020830192505060018101905061169f565b5050509392505050565b60006116e96116e4846123ef565b612366565b90508281526020810184848401111561170157600080fd5b61170c84828561258e565b509392505050565b600081359050611723816127ac565b92915050565b600082601f83011261173a57600080fd5b813561174a8482602086016115fe565b91505092915050565b600082601f83011261176457600080fd5b813561177484826020860161166a565b91505092915050565b60008135905061178c816127c3565b92915050565b6000813590506117a1816127da565b92915050565b6000815190506117b6816127da565b92915050565b600082601f8301126117cd57600080fd5b81356117dd8482602086016116d6565b91505092915050565b6000813590506117f5816127f1565b92915050565b6000806040838503121561180e57600080fd5b600061181c85828601611714565b925050602061182d85828601611714565b9150509250929050565b600080600080600060a0868803121561184f57600080fd5b600061185d88828901611714565b955050602061186e88828901611714565b945050604086013567ffffffffffffffff81111561188b57600080fd5b61189788828901611753565b935050606086013567ffffffffffffffff8111156118b457600080fd5b6118c088828901611753565b925050608086013567ffffffffffffffff8111156118dd57600080fd5b6118e9888289016117bc565b9150509295509295909350565b600080600080600060a0868803121561190e57600080fd5b600061191c88828901611714565b955050602061192d88828901611714565b945050604061193e888289016117e6565b935050606061194f888289016117e6565b925050608086013567ffffffffffffffff81111561196c57600080fd5b611978888289016117bc565b9150509295509295909350565b6000806040838503121561199857600080fd5b60006119a685828601611714565b92505060206119b78582860161177d565b9150509250929050565b600080604083850312156119d457600080fd5b60006119e285828601611714565b92505060206119f3858286016117e6565b9150509250929050565b60008060408385031215611a1057600080fd5b600083013567ffffffffffffffff811115611a2a57600080fd5b611a3685828601611729565b925050602083013567ffffffffffffffff811115611a5357600080fd5b611a5f85828601611753565b9150509250929050565b600060208284031215611a7b57600080fd5b6000611a8984828501611792565b91505092915050565b600060208284031215611aa457600080fd5b6000611ab2848285016117a7565b91505092915050565b600060208284031215611acd57600080fd5b6000611adb848285016117e6565b91505092915050565b6000611af0838361204c565b60208301905092915050565b611b058161251a565b82525050565b6000611b168261242f565b611b20818561245d565b9350611b2b8361241f565b8060005b83811015611b5c578151611b438882611ae4565b9750611b4e83612450565b925050600181019050611b2f565b5085935050505092915050565b611b728161252c565b82525050565b6000611b838261243a565b611b8d818561246e565b9350611b9d81856020860161259d565b611ba6816126d8565b840191505092915050565b6000611bbc82612445565b611bc6818561247f565b9350611bd681856020860161259d565b611bdf816126d8565b840191505092915050565b6000611bf760348361247f565b91507f455243313135353a207472616e7366657220746f206e6f6e204552433131353560008301527f526563656976657220696d706c656d656e7465720000000000000000000000006020830152604082019050919050565b6000611c5d60288361247f565b91507f455243313135353a204552433131353552656365697665722072656a6563746560008301527f6420746f6b656e730000000000000000000000000000000000000000000000006020830152604082019050919050565b6000611cc3602b8361247f565b91507f455243313135353a2062616c616e636520717565727920666f7220746865207a60008301527f65726f20616464726573730000000000000000000000000000000000000000006020830152604082019050919050565b6000611d2960298361247f565b91507f455243313135353a2063616c6c6572206973206e6f74206f776e6572206e6f7260008301527f20617070726f76656400000000000000000000000000000000000000000000006020830152604082019050919050565b6000611d8f60258361247f565b91507f455243313135353a207472616e7366657220746f20746865207a65726f20616460008301527f64726573730000000000000000000000000000000000000000000000000000006020830152604082019050919050565b6000611df560328361247f565b91507f455243313135353a207472616e736665722063616c6c6572206973206e6f742060008301527f6f776e6572206e6f7220617070726f76656400000000000000000000000000006020830152604082019050919050565b6000611e5b602a8361247f565b91507f455243313135353a20696e73756666696369656e742062616c616e636520666f60008301527f72207472616e73666572000000000000000000000000000000000000000000006020830152604082019050919050565b6000611ec160298361247f565b91507f455243313135353a2073657474696e6720617070726f76616c2073746174757360008301527f20666f722073656c6600000000000000000000000000000000000000000000006020830152604082019050919050565b6000611f2760298361247f565b91507f455243313135353a206163636f756e747320616e6420696473206c656e67746860008301527f206d69736d6174636800000000000000000000000000000000000000000000006020830152604082019050919050565b6000611f8d60288361247f565b91507f455243313135353a2069647320616e6420616d6f756e7473206c656e6774682060008301527f6d69736d617463680000000000000000000000000000000000000000000000006020830152604082019050919050565b6000611ff360218361247f565b91507f455243313135353a206d696e7420746f20746865207a65726f2061646472657360008301527f73000000000000000000000000000000000000000000000000000000000000006020830152604082019050919050565b61205581612584565b82525050565b61206481612584565b82525050565b600060a08201905061207f6000830188611afc565b61208c6020830187611afc565b818103604083015261209e8186611b0b565b905081810360608301526120b28185611b0b565b905081810360808301526120c68184611b78565b90509695505050505050565b600060a0820190506120e76000830188611afc565b6120f46020830187611afc565b612101604083018661205b565b61210e606083018561205b565b81810360808301526121208184611b78565b90509695505050505050565b600060208201905081810360008301526121468184611b0b565b905092915050565b600060408201905081810360008301526121688185611b0b565b9050818103602083015261217c8184611b0b565b90509392505050565b600060208201905061219a6000830184611b69565b92915050565b600060208201905081810360008301526121ba8184611bb1565b905092915050565b600060208201905081810360008301526121db81611bea565b9050919050565b600060208201905081810360008301526121fb81611c50565b9050919050565b6000602082019050818103600083015261221b81611cb6565b9050919050565b6000602082019050818103600083015261223b81611d1c565b9050919050565b6000602082019050818103600083015261225b81611d82565b9050919050565b6000602082019050818103600083015261227b81611de8565b9050919050565b6000602082019050818103600083015261229b81611e4e565b9050919050565b600060208201905081810360008301526122bb81611eb4565b9050919050565b600060208201905081810360008301526122db81611f1a565b9050919050565b600060208201905081810360008301526122fb81611f80565b9050919050565b6000602082019050818103600083015261231b81611fe6565b9050919050565b6000602082019050612337600083018461205b565b92915050565b6000604082019050612352600083018561205b565b61235f602083018461205b565b9392505050565b6000604051905081810181811067ffffffffffffffff8211171561238d5761238c6126a9565b5b8060405250919050565b600067ffffffffffffffff8211156123b2576123b16126a9565b5b602082029050602081019050919050565b600067ffffffffffffffff8211156123de576123dd6126a9565b5b602082029050602081019050919050565b600067ffffffffffffffff82111561240a576124096126a9565b5b601f19601f8301169050602081019050919050565b6000819050602082019050919050565b600081519050919050565b600081519050919050565b600081519050919050565b6000602082019050919050565b600082825260208201905092915050565b600082825260208201905092915050565b600082825260208201905092915050565b600061249b82612584565b91506124a683612584565b9250827fffffffffffffffffffffffffffffffffffffffffffffffffffffffffffffffff038211156124db576124da61264b565b5b828201905092915050565b60006124f182612584565b91506124fc83612584565b92508282101561250f5761250e61264b565b5b828203905092915050565b600061252582612564565b9050919050565b60008115159050919050565b60007fffffffff0000000000000000000000000000000000000000000000000000000082169050919050565b600073ffffffffffffffffffffffffffffffffffffffff82169050919050565b6000819050919050565b82818337600083830152505050565b60005b838110156125bb5780820151818401526020810190506125a0565b838111156125ca576000848401525b50505050565b600060028204905060018216806125e857607f821691505b602082108114156125fc576125fb61267a565b5b50919050565b600061260d82612584565b91507fffffffffffffffffffffffffffffffffffffffffffffffffffffffffffffffff8214156126405761263f61264b565b5b600182019050919050565b7f4e487b7100000000000000000000000000000000000000000000000000000000600052601160045260246000fd5b7f4e487b7100000000000000000000000000000000000000000000000000000000600052602260045260246000fd5b7f4e487b7100000000000000000000000000000000000000000000000000000000600052604160045260246000fd5b6000601f19601f8301169050919050565b60008160e01c9050919050565b600060443d1015612706576127a9565b60046000803e6127176000516126e9565b6308c379a0811461272857506127a9565b60405160043d036004823e80513d602482011167ffffffffffffffff82111715612754575050506127a9565b808201805167ffffffffffffffff8111156127735750505050506127a9565b8060208301013d850181111561278e575050505050506127a9565b612797826126d8565b60208401016040528296505050505050505b90565b6127b58161251a565b81146127c057600080fd5b50565b6127cc8161252c565b81146127d757600080fd5b50565b6127e381612538565b81146127ee57600080fd5b50565b6127fa81612584565b811461280557600080fd5b5056fea26469706673582212207f758e713b710e128a34db5207d96d080c5e0643a7cc9318a6ca069351e90cef64736f6c63430008000033",
  "linkReferences": {},
  "deployedLinkReferences": {}
}